{
  "contractName": "ItemManager",
  "abi": [
    {
      "anonymous": false,
      "inputs": [
        {
          "indexed": false,
          "internalType": "string",
          "name": "_itemID",
          "type": "string"
        },
        {
          "indexed": false,
          "internalType": "uint256",
          "name": "_itemPrice",
          "type": "uint256"
        },
        {
          "indexed": false,
          "internalType": "contract Item",
          "name": "_item",
          "type": "address"
        }
      ],
      "name": "ItemDetails",
      "type": "event"
    },
    {
      "anonymous": false,
      "inputs": [
        {
          "indexed": false,
          "internalType": "uint256",
          "name": "_itemIndex",
          "type": "uint256"
        },
        {
          "indexed": false,
          "internalType": "uint256",
          "name": "_itemState",
          "type": "uint256"
        },
        {
          "indexed": false,
          "internalType": "address",
          "name": "_itemAddress",
          "type": "address"
        }
      ],
      "name": "SupplyChaninStep",
      "type": "event"
    },
    {
      "inputs": [],
      "name": "isOwner",
      "outputs": [
        {
          "internalType": "bool",
          "name": "",
          "type": "bool"
        }
      ],
      "stateMutability": "view",
      "type": "function",
      "constant": true
    },
    {
      "inputs": [],
      "name": "itemIndex",
      "outputs": [
        {
          "internalType": "uint256",
          "name": "",
          "type": "uint256"
        }
      ],
      "stateMutability": "view",
      "type": "function",
      "constant": true
    },
    {
      "inputs": [
        {
          "internalType": "uint256",
          "name": "",
          "type": "uint256"
        }
      ],
      "name": "items",
      "outputs": [
        {
          "internalType": "contract Item",
          "name": "_item",
          "type": "address"
        },
        {
          "internalType": "string",
          "name": "_itemID",
          "type": "string"
        },
        {
          "internalType": "uint256",
          "name": "_itemPrice",
          "type": "uint256"
        },
        {
          "internalType": "enum ItemManager.SupplyChaninState",
          "name": "_itemState",
          "type": "uint8"
        }
      ],
      "stateMutability": "view",
      "type": "function",
      "constant": true
    },
    {
      "inputs": [
        {
          "internalType": "string",
          "name": "_id",
          "type": "string"
        },
        {
          "internalType": "uint256",
          "name": "_itemPrice",
          "type": "uint256"
        }
      ],
      "name": "createItem",
      "outputs": [],
      "stateMutability": "nonpayable",
      "type": "function"
    },
    {
      "inputs": [
        {
          "internalType": "uint256",
          "name": "_itemIndex",
          "type": "uint256"
        }
      ],
      "name": "findItemByIndex",
      "outputs": [],
      "stateMutability": "nonpayable",
      "type": "function"
    },
    {
      "inputs": [
        {
          "internalType": "uint256",
          "name": "_itemIndex",
          "type": "uint256"
        }
      ],
      "name": "triggerPayment",
      "outputs": [],
      "stateMutability": "payable",
      "type": "function",
      "payable": true
    },
    {
      "inputs": [
        {
          "internalType": "uint256",
          "name": "_itemIndex",
          "type": "uint256"
        }
      ],
      "name": "triggerDelivery",
      "outputs": [],
      "stateMutability": "nonpayable",
      "type": "function"
    }
  ],
  "bytecode": "0x608060405234801561001057600080fd5b50336000806101000a81548173ffffffffffffffffffffffffffffffffffffffff021916908373ffffffffffffffffffffffffffffffffffffffff160217905550611aae806100606000396000f3fe6080604052600436106200007a5760003560e01c80638f32d59b11620000555780638f32d59b14620000fb578063bfb231d2146200012b578063cd31831e1462000172578063e07bb1a714620001a0576200007a565b806379af79f0146200007f578063800fb83f14620000ad5780638c55174214620000cd575b600080fd5b3480156200008c57600080fd5b50620000ab6004803603810190620000a5919062000ace565b620001d0565b005b620000cb6004803603810190620000c5919062000ace565b620002bd565b005b348015620000da57600080fd5b50620000f96004803603810190620000f3919062000c62565b6200049a565b005b3480156200010857600080fd5b5062000113620006a8565b60405162000122919062000ce5565b60405180910390f35b3480156200013857600080fd5b5062000157600480360381019062000151919062000ace565b620006ff565b60405162000169949392919062000eb1565b60405180910390f35b3480156200017f57600080fd5b506200019e600480360381019062000198919062000ace565b620007ec565b005b348015620001ad57600080fd5b50620001b8620009bb565b604051620001c7919062000f05565b60405180910390f35b620001da620006a8565b6200021c576040517f08c379a0000000000000000000000000000000000000000000000000000000008152600401620002139062000f72565b60405180910390fd5b7f9847bc3d4f5bcd500bfb73f1a2407698c28cb0df3f79fe2a6440b6d267d86e666001600083815260200190815260200160002060010160016000848152602001908152602001600020600201546001600085815260200190815260200160002060000160009054906101000a900473ffffffffffffffffffffffffffffffffffffffff16604051620002b29392919062001099565b60405180910390a150565b3460016000838152602001908152602001600020600201541462000318576040517f08c379a00000000000000000000000000000000000000000000000000000000081526004016200030f906200112d565b60405180910390fd5b600060028111156200032f576200032e62000e31565b5b6001600083815260200190815260200160002060030160009054906101000a900460ff16600281111562000368576200036762000e31565b5b14620003ab576040517f08c379a0000000000000000000000000000000000000000000000000000000008152600401620003a290620011c5565b60405180910390fd5b600180600083815260200190815260200160002060030160006101000a81548160ff02191690836002811115620003e757620003e662000e31565b5b02179055507fdeb2c4c968b97e5846f74c51dc260cf387e1bb51041e5a8ad95b62bd23150738816001600084815260200190815260200160002060030160009054906101000a900460ff16600281111562000447576200044662000e31565b5b6001600085815260200190815260200160002060000160009054906101000a900473ffffffffffffffffffffffffffffffffffffffff166040516200048f939291906200120c565b60405180910390a150565b620004a4620006a8565b620004e6576040517f08c379a0000000000000000000000000000000000000000000000000000000008152600401620004dd9062000f72565b60405180910390fd5b60003082600254604051620004fb90620009c1565b620005099392919062001282565b604051809103906000f08015801562000526573d6000803e3d6000fd5b5090508060016000600254815260200190815260200160002060000160006101000a81548173ffffffffffffffffffffffffffffffffffffffff021916908373ffffffffffffffffffffffffffffffffffffffff160217905550826001600060025481526020019081526020016000206001019080519060200190620005ae929190620009cf565b508160016000600254815260200190815260200160002060020181905550600060016000600254815260200190815260200160002060030160006101000a81548160ff021916908360028111156200060b576200060a62000e31565b5b02179055507fdeb2c4c968b97e5846f74c51dc260cf387e1bb51041e5a8ad95b62bd2315073860025460016000600254815260200190815260200160002060030160009054906101000a900460ff1660028111156200066f576200066e62000e31565b5b8360405162000681939291906200120c565b60405180910390a1600260008154809291906200069e90620012ee565b9190505550505050565b60008060009054906101000a900473ffffffffffffffffffffffffffffffffffffffff1673ffffffffffffffffffffffffffffffffffffffff163373ffffffffffffffffffffffffffffffffffffffff1614905090565b60016020528060005260406000206000915090508060000160009054906101000a900473ffffffffffffffffffffffffffffffffffffffff16908060010180546200074a9062000fc3565b80601f0160208091040260200160405190810160405280929190818152602001828054620007789062000fc3565b8015620007c95780601f106200079d57610100808354040283529160200191620007c9565b820191906000526020600020905b815481529060010190602001808311620007ab57829003601f168201915b5050505050908060020154908060030160009054906101000a900460ff16905084565b620007f6620006a8565b62000838576040517f08c379a00000000000000000000000000000000000000000000000000000000081526004016200082f9062000f72565b60405180910390fd5b600160028111156200084f576200084e62000e31565b5b6001600083815260200190815260200160002060030160009054906101000a900460ff16600281111562000888576200088762000e31565b5b14620008cb576040517f08c379a0000000000000000000000000000000000000000000000000000000008152600401620008c2906200138b565b60405180910390fd5b60026001600083815260200190815260200160002060030160006101000a81548160ff0219169083600281111562000908576200090762000e31565b5b02179055507fdeb2c4c968b97e5846f74c51dc260cf387e1bb51041e5a8ad95b62bd23150738816001600084815260200190815260200160002060030160009054906101000a900460ff16600281111562000968576200096762000e31565b5b6001600085815260200190815260200160002060000160009054906101000a900473ffffffffffffffffffffffffffffffffffffffff16604051620009b0939291906200120c565b60405180910390a150565b60025481565b6106cb80620013ae83390190565b828054620009dd9062000fc3565b90600052602060002090601f01602090048101928262000a01576000855562000a4d565b82601f1062000a1c57805160ff191683800117855562000a4d565b8280016001018555821562000a4d579182015b8281111562000a4c57825182559160200191906001019062000a2f565b5b50905062000a5c919062000a60565b5090565b5b8082111562000a7b57600081600090555060010162000a61565b5090565b6000604051905090565b600080fd5b600080fd5b6000819050919050565b62000aa88162000a93565b811462000ab457600080fd5b50565b60008135905062000ac88162000a9d565b92915050565b60006020828403121562000ae75762000ae662000a89565b5b600062000af78482850162000ab7565b91505092915050565b600080fd5b600080fd5b6000601f19601f8301169050919050565b7f4e487b7100000000000000000000000000000000000000000000000000000000600052604160045260246000fd5b62000b558262000b0a565b810181811067ffffffffffffffff8211171562000b775762000b7662000b1b565b5b80604052505050565b600062000b8c62000a7f565b905062000b9a828262000b4a565b919050565b600067ffffffffffffffff82111562000bbd5762000bbc62000b1b565b5b62000bc88262000b0a565b9050602081019050919050565b82818337600083830152505050565b600062000bfb62000bf58462000b9f565b62000b80565b90508281526020810184848401111562000c1a5762000c1962000b05565b5b62000c2784828562000bd5565b509392505050565b600082601f83011262000c475762000c4662000b00565b5b813562000c5984826020860162000be4565b91505092915050565b6000806040838503121562000c7c5762000c7b62000a89565b5b600083013567ffffffffffffffff81111562000c9d5762000c9c62000a8e565b5b62000cab8582860162000c2f565b925050602062000cbe8582860162000ab7565b9150509250929050565b60008115159050919050565b62000cdf8162000cc8565b82525050565b600060208201905062000cfc600083018462000cd4565b92915050565b600073ffffffffffffffffffffffffffffffffffffffff82169050919050565b6000819050919050565b600062000d4d62000d4762000d418462000d02565b62000d22565b62000d02565b9050919050565b600062000d618262000d2c565b9050919050565b600062000d758262000d54565b9050919050565b62000d878162000d68565b82525050565b600081519050919050565b600082825260208201905092915050565b60005b8381101562000dc957808201518184015260208101905062000dac565b8381111562000dd9576000848401525b50505050565b600062000dec8262000d8d565b62000df8818562000d98565b935062000e0a81856020860162000da9565b62000e158162000b0a565b840191505092915050565b62000e2b8162000a93565b82525050565b7f4e487b7100000000000000000000000000000000000000000000000000000000600052602160045260246000fd5b6003811062000e745762000e7362000e31565b5b50565b600081905062000e878262000e60565b919050565b600062000e998262000e77565b9050919050565b62000eab8162000e8c565b82525050565b600060808201905062000ec8600083018762000d7c565b818103602083015262000edc818662000ddf565b905062000eed604083018562000e20565b62000efc606083018462000ea0565b95945050505050565b600060208201905062000f1c600083018462000e20565b92915050565b7f596f7520617265206e6f7420616c6c6f77656421000000000000000000000000600082015250565b600062000f5a60148362000d98565b915062000f678262000f22565b602082019050919050565b6000602082019050818103600083015262000f8d8162000f4b565b9050919050565b7f4e487b7100000000000000000000000000000000000000000000000000000000600052602260045260246000fd5b6000600282049050600182168062000fdc57607f821691505b60208210810362000ff25762000ff162000f94565b5b50919050565b60008190508160005260206000209050919050565b600081546200101c8162000fc3565b62001028818662000d98565b94506001821660008114620010465760018114620010595762001090565b60ff198316865260208601935062001090565b620010648562000ff8565b60005b83811015620010885781548189015260018201915060208101905062001067565b808801955050505b50505092915050565b60006060820190508181036000830152620010b581866200100d565b9050620010c6602083018562000e20565b620010d5604083018462000d7c565b949350505050565b7f4f6e6c792066756c6c207061796d656e74732061636365707465642100000000600082015250565b600062001115601c8362000d98565b91506200112282620010dd565b602082019050919050565b60006020820190508181036000830152620011488162001106565b9050919050565b7f4974656d204e6f742063726561746564206f722077617320616c6c726561647960008201527f2070616964210000000000000000000000000000000000000000000000000000602082015250565b6000620011ad60268362000d98565b9150620011ba826200114f565b604082019050919050565b60006020820190508181036000830152620011e0816200119e565b9050919050565b6000620011f48262000d02565b9050919050565b6200120681620011e7565b82525050565b600060608201905062001223600083018662000e20565b62001232602083018562000e20565b620012416040830184620011fb565b949350505050565b6000620012568262000d2c565b9050919050565b60006200126a8262001249565b9050919050565b6200127c816200125d565b82525050565b600060608201905062001299600083018662001271565b620012a8602083018562000e20565b620012b7604083018462000e20565b949350505050565b7f4e487b7100000000000000000000000000000000000000000000000000000000600052601160045260246000fd5b6000620012fb8262000a93565b91507fffffffffffffffffffffffffffffffffffffffffffffffffffffffffffffffff820362001330576200132f620012bf565b5b600182019050919050565b7f4974656d20776173206e6f742070616964210000000000000000000000000000600082015250565b60006200137360128362000d98565b915062001380826200133b565b602082019050919050565b60006020820190508181036000830152620013a68162001364565b905091905056fe608060405234801561001057600080fd5b506040516106cb3803806106cb83398181016040528101906100329190610134565b816000819055508060028190555082600360006101000a81548173ffffffffffffffffffffffffffffffffffffffff021916908373ffffffffffffffffffffffffffffffffffffffff160217905550505050610187565b600080fd5b600073ffffffffffffffffffffffffffffffffffffffff82169050919050565b60006100b98261008e565b9050919050565b60006100cb826100ae565b9050919050565b6100db816100c0565b81146100e657600080fd5b50565b6000815190506100f8816100d2565b92915050565b6000819050919050565b610111816100fe565b811461011c57600080fd5b50565b60008151905061012e81610108565b92915050565b60008060006060848603121561014d5761014c610089565b5b600061015b868287016100e9565b935050602061016c8682870161011f565b925050604061017d8682870161011f565b9150509250925092565b610535806101966000396000f3fe6080604052600436106100385760003560e01c80632986c0e51461022c5780633c8da5881461025757806389794d001461028257610227565b3661022757600060015414610082576040517f08c379a00000000000000000000000000000000000000000000000000000000081526004016100799061031c565b60405180910390fd5b34600054146100c6576040517f08c379a00000000000000000000000000000000000000000000000000000000081526004016100bd90610388565b60405180910390fd5b6000600360009054906101000a900473ffffffffffffffffffffffffffffffffffffffff1673ffffffffffffffffffffffffffffffffffffffff163460025460405160240161011591906103c1565b6040516020818303038152906040527f800fb83f000000000000000000000000000000000000000000000000000000007bffffffffffffffffffffffffffffffffffffffffffffffffffffffff19166020820180517bffffffffffffffffffffffffffffffffffffffffffffffffffffffff838183161783525050505060405161019f9190610456565b60006040518083038185875af1925050503d80600081146101dc576040519150601f19603f3d011682016040523d82523d6000602084013e6101e1565b606091505b5050905080610225576040517f08c379a000000000000000000000000000000000000000000000000000000000815260040161021c906104df565b60405180910390fd5b005b600080fd5b34801561023857600080fd5b506102416102ad565b60405161024e91906103c1565b60405180910390f35b34801561026357600080fd5b5061026c6102b3565b60405161027991906103c1565b60405180910390f35b34801561028e57600080fd5b506102976102b9565b6040516102a491906103c1565b60405180910390f35b60025481565b60005481565b60015481565b600082825260208201905092915050565b7f4974656d206973207061696420616c7265616479210000000000000000000000600082015250565b60006103066015836102bf565b9150610311826102d0565b602082019050919050565b60006020820190508181036000830152610335816102f9565b9050919050565b7f4f6e6c792066756c6c207061796d656e747320616c6c6f776564000000000000600082015250565b6000610372601a836102bf565b915061037d8261033c565b602082019050919050565b600060208201905081810360008301526103a181610365565b9050919050565b6000819050919050565b6103bb816103a8565b82525050565b60006020820190506103d660008301846103b2565b92915050565b600081519050919050565b600081905092915050565b60005b838110156104105780820151818401526020810190506103f5565b8381111561041f576000848401525b50505050565b6000610430826103dc565b61043a81856103e7565b935061044a8185602086016103f2565b80840191505092915050565b60006104628284610425565b915081905092915050565b7f546865207472616e73616374696f6e207761736e27742073756363657373667560008201527f6c2c2063616e63656c696e672100000000000000000000000000000000000000602082015250565b60006104c9602d836102bf565b91506104d48261046d565b604082019050919050565b600060208201905081810360008301526104f8816104bc565b905091905056fea26469706673582212205a4478545e682352bad753b681714476e543de31c32490d7210538bca186fefd64736f6c634300080d0033a26469706673582212206caf917b5ead9dcc8ed454c58c1f4edeb66717fed4330b754852e09c1b9c137464736f6c634300080d0033",
  "immutableReferences": {},
  "source": "// SPDX-License-Identifier: MIT\r\n\r\npragma solidity ^0.8.0;\r\n\r\nimport \"./Ownable.sol\";\r\nimport \"./Item.sol\";\r\n\r\ncontract ItemManager is Ownable\r\n{\r\n\r\n    enum SupplyChaninState\r\n    {\r\n        Created, \r\n        Paid, \r\n        Delivered\r\n    }\r\n\r\n    struct ItemModel\r\n    {\r\n        Item _item;\r\n        string _itemID;\r\n        uint _itemPrice;\r\n        ItemManager.SupplyChaninState _itemState;\r\n    }\r\n\r\n    mapping ( uint => ItemModel ) public items;\r\n\r\n    event SupplyChaninStep(uint _itemIndex, uint _itemState, address _itemAddress);\r\n    event ItemDetails(string _itemID, uint _itemPrice, Item _item);\r\n    uint public itemIndex;\r\n\r\n\r\n    function createItem(string memory _id, uint _itemPrice)\r\n      public\r\n      onlyOwner\r\n    {\r\n        Item item = new Item( this, _itemPrice, itemIndex);\r\n        items[itemIndex]._item = item;\r\n        items[itemIndex]._itemID = _id;\r\n        items[itemIndex]._itemPrice = _itemPrice;\r\n        items[itemIndex]._itemState = SupplyChaninState.Created;\r\n\r\n        emit SupplyChaninStep(itemIndex, uint(items[itemIndex]._itemState), address(item));\r\n\r\n        itemIndex++;\r\n    }\r\n\r\n    function findItemByIndex(uint _itemIndex)\r\n      public\r\n      onlyOwner\r\n    {\r\n      emit ItemDetails(items[_itemIndex]._itemID, items[_itemIndex]._itemPrice, items[_itemIndex]._item);\r\n    }\r\n\r\n    function triggerPayment(uint _itemIndex)\r\n      public\r\n      payable\r\n    {\r\n        require(items[_itemIndex]._itemPrice == msg.value , \"Only full payments accepted!\");\r\n        require(items[_itemIndex]._itemState == SupplyChaninState.Created, \"Item Not created or was allready paid!\");\r\n\r\n        items[_itemIndex]._itemState = SupplyChaninState.Paid;\r\n\r\n        emit SupplyChaninStep(_itemIndex, uint(items[_itemIndex]._itemState), address(items[_itemIndex]._item));\r\n\r\n    }\r\n\r\n\r\n    function triggerDelivery(uint _itemIndex)\r\n      public\r\n      onlyOwner\r\n    {\r\n        require(items[_itemIndex]._itemState == SupplyChaninState.Paid, \"Item was not paid!\");\r\n\r\n        items[_itemIndex]._itemState = SupplyChaninState.Delivered;\r\n\r\n        emit SupplyChaninStep(_itemIndex, uint(items[_itemIndex]._itemState), address(items[_itemIndex]._item));\r\n    }\r\n}",
  "sourcePath": "D:\\Solidity\\Dapp Dev\\supply-chain\\contracts\\ItemManager.sol",
  "compiler": {
    "name": "solc",
    "version": "0.8.13+commit.abaa5c0e.Emscripten.clang"
  },
  "schemaVersion": "3.4.6",
  "updatedAt": "2022-03-19T22:45:45.660Z",
  "networkType": "ethereum",
  "devdoc": {
    "kind": "dev",
    "methods": {},
    "version": 1
  },
  "userdoc": {
    "kind": "user",
    "methods": {},
    "version": 1
  }
}