{
  "contractName": "ItemManager",
  "abi": [
    {
      "anonymous": false,
      "inputs": [
        {
          "indexed": false,
          "internalType": "uint256",
          "name": "_itemCount",
          "type": "uint256"
        }
      ],
      "name": "ItemCount",
      "type": "event"
    },
    {
      "anonymous": false,
      "inputs": [
        {
          "indexed": false,
          "internalType": "string",
          "name": "_itemID",
          "type": "string"
        },
        {
          "indexed": false,
          "internalType": "uint256",
          "name": "_itemPrice",
          "type": "uint256"
        },
        {
          "indexed": false,
          "internalType": "contract Item",
          "name": "_item",
          "type": "address"
        }
      ],
      "name": "ItemDetails",
      "type": "event"
    },
    {
      "anonymous": false,
      "inputs": [
        {
          "indexed": false,
          "internalType": "uint256",
          "name": "_itemIndex",
          "type": "uint256"
        },
        {
          "indexed": false,
          "internalType": "uint256",
          "name": "_itemState",
          "type": "uint256"
        },
        {
          "indexed": false,
          "internalType": "address",
          "name": "_itemAddress",
          "type": "address"
        }
      ],
      "name": "SupplyChaninStep",
      "type": "event"
    },
    {
      "inputs": [],
      "name": "isOwner",
      "outputs": [
        {
          "internalType": "bool",
          "name": "",
          "type": "bool"
        }
      ],
      "stateMutability": "view",
      "type": "function",
      "constant": true
    },
    {
      "inputs": [],
      "name": "itemIndex",
      "outputs": [
        {
          "internalType": "uint256",
          "name": "",
          "type": "uint256"
        }
      ],
      "stateMutability": "view",
      "type": "function",
      "constant": true
    },
    {
      "inputs": [
        {
          "internalType": "uint256",
          "name": "",
          "type": "uint256"
        }
      ],
      "name": "items",
      "outputs": [
        {
          "internalType": "contract Item",
          "name": "_item",
          "type": "address"
        },
        {
          "internalType": "string",
          "name": "_itemID",
          "type": "string"
        },
        {
          "internalType": "uint256",
          "name": "_itemPrice",
          "type": "uint256"
        },
        {
          "internalType": "enum ItemManager.SupplyChaninState",
          "name": "_itemState",
          "type": "uint8"
        }
      ],
      "stateMutability": "view",
      "type": "function",
      "constant": true
    },
    {
      "inputs": [
        {
          "internalType": "address",
          "name": "",
          "type": "address"
        }
      ],
      "name": "ownedItems",
      "outputs": [
        {
          "internalType": "uint256",
          "name": "itemIndex",
          "type": "uint256"
        }
      ],
      "stateMutability": "view",
      "type": "function",
      "constant": true
    },
    {
      "inputs": [
        {
          "internalType": "string",
          "name": "_id",
          "type": "string"
        },
        {
          "internalType": "uint256",
          "name": "_itemPrice",
          "type": "uint256"
        }
      ],
      "name": "createItem",
      "outputs": [],
      "stateMutability": "nonpayable",
      "type": "function"
    },
    {
      "inputs": [
        {
          "internalType": "uint256",
          "name": "_itemIndex",
          "type": "uint256"
        }
      ],
      "name": "findItemByIndex",
      "outputs": [],
      "stateMutability": "nonpayable",
      "type": "function"
    },
    {
      "inputs": [
        {
          "internalType": "address",
          "name": "_address",
          "type": "address"
        }
      ],
      "name": "getItemCountOfAccount",
      "outputs": [],
      "stateMutability": "nonpayable",
      "type": "function"
    },
    {
      "inputs": [
        {
          "internalType": "address",
          "name": "_address",
          "type": "address"
        },
        {
          "internalType": "uint256",
          "name": "_index",
          "type": "uint256"
        }
      ],
      "name": "findItemByIndexForAccount",
      "outputs": [],
      "stateMutability": "nonpayable",
      "type": "function"
    },
    {
      "inputs": [
        {
          "internalType": "uint256",
          "name": "_itemIndex",
          "type": "uint256"
        }
      ],
      "name": "triggerPayment",
      "outputs": [],
      "stateMutability": "payable",
      "type": "function",
      "payable": true
    },
    {
      "inputs": [
        {
          "internalType": "uint256",
          "name": "_itemIndex",
          "type": "uint256"
        }
      ],
      "name": "triggerDelivery",
      "outputs": [],
      "stateMutability": "nonpayable",
      "type": "function"
    }
  ],
  "bytecode": "0x608060405234801561001057600080fd5b50336000806101000a81548173ffffffffffffffffffffffffffffffffffffffff021916908373ffffffffffffffffffffffffffffffffffffffff16021790555061211e806100606000396000f3fe6080604052600436106200009e5760003560e01c80638f32d59b11620000615780638f32d59b1462000191578063bfb231d214620001c1578063c644c9961462000208578063cd31831e1462000236578063e07bb1a71462000264576200009e565b806373df448a14620000a357806379af79f014620000e7578063800fb83f14620001155780638c55174214620001355780638e308f6b1462000163575b600080fd5b348015620000b057600080fd5b50620000cf6004803603810190620000c991906200104c565b62000294565b604051620000de919062001099565b60405180910390f35b348015620000f457600080fd5b506200011360048036038101906200010d9190620010e7565b620002b2565b005b6200013360048036038101906200012d9190620010e7565b62000353565b005b3480156200014257600080fd5b506200016160048036038101906200015b91906200127b565b62000694565b005b3480156200017057600080fd5b506200018f6004803603810190620001899190620012e1565b620008a2565b005b3480156200019e57600080fd5b50620001a962000a75565b604051620001b8919062001345565b60405180910390f35b348015620001ce57600080fd5b50620001ed6004803603810190620001e79190620010e7565b62000acc565b604051620001ff9493929190620014e0565b60405180910390f35b3480156200021557600080fd5b506200023460048036038101906200022e91906200104c565b62000bb9565b005b3480156200024357600080fd5b506200026260048036038101906200025c9190620010e7565b62000ca8565b005b3480156200027157600080fd5b506200027c62000e77565b6040516200028b919062001099565b60405180910390f35b60026020528060005260406000206000915090508060000154905081565b7f9847bc3d4f5bcd500bfb73f1a2407698c28cb0df3f79fe2a6440b6d267d86e666001600083815260200190815260200160002060010160016000848152602001908152602001600020600201546001600085815260200190815260200160002060000160009054906101000a900473ffffffffffffffffffffffffffffffffffffffff16604051620003489392919062001639565b60405180910390a150565b34600160008381526020019081526020016000206002015414620003ae576040517f08c379a0000000000000000000000000000000000000000000000000000000008152600401620003a590620016cd565b60405180910390fd5b60006002811115620003c557620003c462001460565b5b6001600083815260200190815260200160002060030160009054906101000a900460ff166002811115620003fe57620003fd62001460565b5b1462000441576040517f08c379a0000000000000000000000000000000000000000000000000000000008152600401620004389062001765565b60405180910390fd5b600180600083815260200190815260200160002060030160006101000a81548160ff021916908360028111156200047d576200047c62001460565b5b02179055506000600260003373ffffffffffffffffffffffffffffffffffffffff1673ffffffffffffffffffffffffffffffffffffffff168152602001908152602001600020905060016000838152602001908152602001600020816001016000836000015481526020019081526020016000206000820160009054906101000a900473ffffffffffffffffffffffffffffffffffffffff168160000160006101000a81548173ffffffffffffffffffffffffffffffffffffffff021916908373ffffffffffffffffffffffffffffffffffffffff16021790555060018201816001019080546200056e9062001563565b6200057b92919062000e7d565b50600282015481600201556003820160009054906101000a900460ff168160030160006101000a81548160ff02191690836002811115620005c157620005c062001460565b5b0217905550905050806000016000815480929190620005e090620017b6565b91905055507fdeb2c4c968b97e5846f74c51dc260cf387e1bb51041e5a8ad95b62bd23150738826001600085815260200190815260200160002060030160009054906101000a900460ff16600281111562000640576200063f62001460565b5b6001600086815260200190815260200160002060000160009054906101000a900473ffffffffffffffffffffffffffffffffffffffff16604051620006889392919062001814565b60405180910390a15050565b6200069e62000a75565b620006e0576040517f08c379a0000000000000000000000000000000000000000000000000000000008152600401620006d790620018a1565b60405180910390fd5b60003082600354604051620006f59062000f15565b6200070393929190620018fc565b604051809103906000f08015801562000720573d6000803e3d6000fd5b5090508060016000600354815260200190815260200160002060000160006101000a81548173ffffffffffffffffffffffffffffffffffffffff021916908373ffffffffffffffffffffffffffffffffffffffff160217905550826001600060035481526020019081526020016000206001019080519060200190620007a892919062000f23565b508160016000600354815260200190815260200160002060020181905550600060016000600354815260200190815260200160002060030160006101000a81548160ff0219169083600281111562000805576200080462001460565b5b02179055507fdeb2c4c968b97e5846f74c51dc260cf387e1bb51041e5a8ad95b62bd2315073860035460016000600354815260200190815260200160002060030160009054906101000a900460ff16600281111562000869576200086862001460565b5b836040516200087b9392919062001814565b60405180910390a1600360008154809291906200089890620017b6565b9190505550505050565b3373ffffffffffffffffffffffffffffffffffffffff168273ffffffffffffffffffffffffffffffffffffffff161462000913576040517f08c379a00000000000000000000000000000000000000000000000000000000081526004016200090a9062001989565b60405180910390fd5b7f9847bc3d4f5bcd500bfb73f1a2407698c28cb0df3f79fe2a6440b6d267d86e66600260008473ffffffffffffffffffffffffffffffffffffffff1673ffffffffffffffffffffffffffffffffffffffff1681526020019081526020016000206001016000838152602001908152602001600020600101600260008573ffffffffffffffffffffffffffffffffffffffff1673ffffffffffffffffffffffffffffffffffffffff168152602001908152602001600020600101600084815260200190815260200160002060020154600260008673ffffffffffffffffffffffffffffffffffffffff1673ffffffffffffffffffffffffffffffffffffffff168152602001908152602001600020600101600085815260200190815260200160002060000160009054906101000a900473ffffffffffffffffffffffffffffffffffffffff1660405162000a699392919062001639565b60405180910390a15050565b60008060009054906101000a900473ffffffffffffffffffffffffffffffffffffffff1673ffffffffffffffffffffffffffffffffffffffff163373ffffffffffffffffffffffffffffffffffffffff1614905090565b60016020528060005260406000206000915090508060000160009054906101000a900473ffffffffffffffffffffffffffffffffffffffff169080600101805462000b179062001563565b80601f016020809104026020016040519081016040528092919081815260200182805462000b459062001563565b801562000b965780601f1062000b6a5761010080835404028352916020019162000b96565b820191906000526020600020905b81548152906001019060200180831162000b7857829003601f168201915b5050505050908060020154908060030160009054906101000a900460ff16905084565b3373ffffffffffffffffffffffffffffffffffffffff168173ffffffffffffffffffffffffffffffffffffffff161462000c2a576040517f08c379a000000000000000000000000000000000000000000000000000000000815260040162000c219062001989565b60405180910390fd5b7ffdad3f1642df8b21ea613bf3c527d79bb07fcc87128b4b59cbb0740c35bfbac9600260008373ffffffffffffffffffffffffffffffffffffffff1673ffffffffffffffffffffffffffffffffffffffff1681526020019081526020016000206000015460405162000c9d919062001099565b60405180910390a150565b62000cb262000a75565b62000cf4576040517f08c379a000000000000000000000000000000000000000000000000000000000815260040162000ceb90620018a1565b60405180910390fd5b6001600281111562000d0b5762000d0a62001460565b5b6001600083815260200190815260200160002060030160009054906101000a900460ff16600281111562000d445762000d4362001460565b5b1462000d87576040517f08c379a000000000000000000000000000000000000000000000000000000000815260040162000d7e90620019fb565b60405180910390fd5b60026001600083815260200190815260200160002060030160006101000a81548160ff0219169083600281111562000dc45762000dc362001460565b5b02179055507fdeb2c4c968b97e5846f74c51dc260cf387e1bb51041e5a8ad95b62bd23150738816001600084815260200190815260200160002060030160009054906101000a900460ff16600281111562000e245762000e2362001460565b5b6001600085815260200190815260200160002060000160009054906101000a900473ffffffffffffffffffffffffffffffffffffffff1660405162000e6c9392919062001814565b60405180910390a150565b60035481565b82805462000e8b9062001563565b90600052602060002090601f01602090048101928262000eaf576000855562000f02565b82601f1062000ec2578054855562000f02565b8280016001018555821562000f0257600052602060002091601f016020900482015b8281111562000f0157825482559160010191906001019062000ee4565b5b50905062000f11919062000fb4565b5090565b6106cb8062001a1e83390190565b82805462000f319062001563565b90600052602060002090601f01602090048101928262000f55576000855562000fa1565b82601f1062000f7057805160ff191683800117855562000fa1565b8280016001018555821562000fa1579182015b8281111562000fa057825182559160200191906001019062000f83565b5b50905062000fb0919062000fb4565b5090565b5b8082111562000fcf57600081600090555060010162000fb5565b5090565b6000604051905090565b600080fd5b600080fd5b600073ffffffffffffffffffffffffffffffffffffffff82169050919050565b6000620010148262000fe7565b9050919050565b620010268162001007565b81146200103257600080fd5b50565b60008135905062001046816200101b565b92915050565b60006020828403121562001065576200106462000fdd565b5b6000620010758482850162001035565b91505092915050565b6000819050919050565b62001093816200107e565b82525050565b6000602082019050620010b0600083018462001088565b92915050565b620010c1816200107e565b8114620010cd57600080fd5b50565b600081359050620010e181620010b6565b92915050565b6000602082840312156200110057620010ff62000fdd565b5b60006200111084828501620010d0565b91505092915050565b600080fd5b600080fd5b6000601f19601f8301169050919050565b7f4e487b7100000000000000000000000000000000000000000000000000000000600052604160045260246000fd5b6200116e8262001123565b810181811067ffffffffffffffff8211171562001190576200118f62001134565b5b80604052505050565b6000620011a562000fd3565b9050620011b3828262001163565b919050565b600067ffffffffffffffff821115620011d657620011d562001134565b5b620011e18262001123565b9050602081019050919050565b82818337600083830152505050565b6000620012146200120e84620011b8565b62001199565b9050828152602081018484840111156200123357620012326200111e565b5b62001240848285620011ee565b509392505050565b600082601f83011262001260576200125f62001119565b5b813562001272848260208601620011fd565b91505092915050565b6000806040838503121562001295576200129462000fdd565b5b600083013567ffffffffffffffff811115620012b657620012b562000fe2565b5b620012c48582860162001248565b9250506020620012d785828601620010d0565b9150509250929050565b60008060408385031215620012fb57620012fa62000fdd565b5b60006200130b8582860162001035565b92505060206200131e85828601620010d0565b9150509250929050565b60008115159050919050565b6200133f8162001328565b82525050565b60006020820190506200135c600083018462001334565b92915050565b6000819050919050565b60006200138d62001387620013818462000fe7565b62001362565b62000fe7565b9050919050565b6000620013a1826200136c565b9050919050565b6000620013b58262001394565b9050919050565b620013c781620013a8565b82525050565b600081519050919050565b600082825260208201905092915050565b60005b8381101562001409578082015181840152602081019050620013ec565b8381111562001419576000848401525b50505050565b60006200142c82620013cd565b620014388185620013d8565b93506200144a818560208601620013e9565b620014558162001123565b840191505092915050565b7f4e487b7100000000000000000000000000000000000000000000000000000000600052602160045260246000fd5b60038110620014a357620014a262001460565b5b50565b6000819050620014b6826200148f565b919050565b6000620014c882620014a6565b9050919050565b620014da81620014bb565b82525050565b6000608082019050620014f76000830187620013bc565b81810360208301526200150b81866200141f565b90506200151c604083018562001088565b6200152b6060830184620014cf565b95945050505050565b7f4e487b7100000000000000000000000000000000000000000000000000000000600052602260045260246000fd5b600060028204905060018216806200157c57607f821691505b60208210810362001592576200159162001534565b5b50919050565b60008190508160005260206000209050919050565b60008154620015bc8162001563565b620015c88186620013d8565b94506001821660008114620015e65760018114620015f95762001630565b60ff198316865260208601935062001630565b620016048562001598565b60005b83811015620016285781548189015260018201915060208101905062001607565b808801955050505b50505092915050565b60006060820190508181036000830152620016558186620015ad565b905062001666602083018562001088565b620016756040830184620013bc565b949350505050565b7f4f6e6c792066756c6c207061796d656e74732061636365707465642100000000600082015250565b6000620016b5601c83620013d8565b9150620016c2826200167d565b602082019050919050565b60006020820190508181036000830152620016e881620016a6565b9050919050565b7f4974656d204e6f742063726561746564206f722077617320616c6c726561647960008201527f2070616964210000000000000000000000000000000000000000000000000000602082015250565b60006200174d602683620013d8565b91506200175a82620016ef565b604082019050919050565b6000602082019050818103600083015262001780816200173e565b9050919050565b7f4e487b7100000000000000000000000000000000000000000000000000000000600052601160045260246000fd5b6000620017c3826200107e565b91507fffffffffffffffffffffffffffffffffffffffffffffffffffffffffffffffff8203620017f857620017f762001787565b5b600182019050919050565b6200180e8162001007565b82525050565b60006060820190506200182b600083018662001088565b6200183a602083018562001088565b62001849604083018462001803565b949350505050565b7f596f7520617265206e6f7420616c6c6f77656421000000000000000000000000600082015250565b600062001889601483620013d8565b9150620018968262001851565b602082019050919050565b60006020820190508181036000830152620018bc816200187a565b9050919050565b6000620018d0826200136c565b9050919050565b6000620018e482620018c3565b9050919050565b620018f681620018d7565b82525050565b6000606082019050620019136000830186620018eb565b62001922602083018562001088565b62001931604083018462001088565b949350505050565b7f596f7520646f206e6f742068617665207065726d697373696f6e000000000000600082015250565b600062001971601a83620013d8565b91506200197e8262001939565b602082019050919050565b60006020820190508181036000830152620019a48162001962565b9050919050565b7f4974656d20776173206e6f742070616964210000000000000000000000000000600082015250565b6000620019e3601283620013d8565b9150620019f082620019ab565b602082019050919050565b6000602082019050818103600083015262001a1681620019d4565b905091905056fe608060405234801561001057600080fd5b506040516106cb3803806106cb83398181016040528101906100329190610134565b816000819055508060028190555082600360006101000a81548173ffffffffffffffffffffffffffffffffffffffff021916908373ffffffffffffffffffffffffffffffffffffffff160217905550505050610187565b600080fd5b600073ffffffffffffffffffffffffffffffffffffffff82169050919050565b60006100b98261008e565b9050919050565b60006100cb826100ae565b9050919050565b6100db816100c0565b81146100e657600080fd5b50565b6000815190506100f8816100d2565b92915050565b6000819050919050565b610111816100fe565b811461011c57600080fd5b50565b60008151905061012e81610108565b92915050565b60008060006060848603121561014d5761014c610089565b5b600061015b868287016100e9565b935050602061016c8682870161011f565b925050604061017d8682870161011f565b9150509250925092565b610535806101966000396000f3fe6080604052600436106100385760003560e01c80632986c0e51461022c5780633c8da5881461025757806389794d001461028257610227565b3661022757600060015414610082576040517f08c379a00000000000000000000000000000000000000000000000000000000081526004016100799061031c565b60405180910390fd5b34600054146100c6576040517f08c379a00000000000000000000000000000000000000000000000000000000081526004016100bd90610388565b60405180910390fd5b6000600360009054906101000a900473ffffffffffffffffffffffffffffffffffffffff1673ffffffffffffffffffffffffffffffffffffffff163460025460405160240161011591906103c1565b6040516020818303038152906040527f800fb83f000000000000000000000000000000000000000000000000000000007bffffffffffffffffffffffffffffffffffffffffffffffffffffffff19166020820180517bffffffffffffffffffffffffffffffffffffffffffffffffffffffff838183161783525050505060405161019f9190610456565b60006040518083038185875af1925050503d80600081146101dc576040519150601f19603f3d011682016040523d82523d6000602084013e6101e1565b606091505b5050905080610225576040517f08c379a000000000000000000000000000000000000000000000000000000000815260040161021c906104df565b60405180910390fd5b005b600080fd5b34801561023857600080fd5b506102416102ad565b60405161024e91906103c1565b60405180910390f35b34801561026357600080fd5b5061026c6102b3565b60405161027991906103c1565b60405180910390f35b34801561028e57600080fd5b506102976102b9565b6040516102a491906103c1565b60405180910390f35b60025481565b60005481565b60015481565b600082825260208201905092915050565b7f4974656d206973207061696420616c7265616479210000000000000000000000600082015250565b60006103066015836102bf565b9150610311826102d0565b602082019050919050565b60006020820190508181036000830152610335816102f9565b9050919050565b7f4f6e6c792066756c6c207061796d656e747320616c6c6f776564000000000000600082015250565b6000610372601a836102bf565b915061037d8261033c565b602082019050919050565b600060208201905081810360008301526103a181610365565b9050919050565b6000819050919050565b6103bb816103a8565b82525050565b60006020820190506103d660008301846103b2565b92915050565b600081519050919050565b600081905092915050565b60005b838110156104105780820151818401526020810190506103f5565b8381111561041f576000848401525b50505050565b6000610430826103dc565b61043a81856103e7565b935061044a8185602086016103f2565b80840191505092915050565b60006104628284610425565b915081905092915050565b7f546865207472616e73616374696f6e207761736e27742073756363657373667560008201527f6c2c2063616e63656c696e672100000000000000000000000000000000000000602082015250565b60006104c9602d836102bf565b91506104d48261046d565b604082019050919050565b600060208201905081810360008301526104f8816104bc565b905091905056fea26469706673582212206cc64b8d54a1c0f2a827e9d1886fb78d80c1aff3f0a0d4db87016da5709d5c7d64736f6c634300080d0033a2646970667358221220ef475acf0b7af945f024753795846965df7baa0fdf44adf46f6d9ab0730ea31864736f6c634300080d0033",
  "immutableReferences": {},
  "source": "// SPDX-License-Identifier: MIT\r\n\r\npragma solidity ^0.8.0;\r\n\r\nimport \"./Ownable.sol\";\r\nimport \"./Item.sol\";\r\n\r\ncontract ItemManager is Ownable\r\n{\r\n\r\n    enum SupplyChaninState\r\n    {\r\n        Created, \r\n        Paid, \r\n        Delivered\r\n    }\r\n\r\n    struct ItemModel\r\n    {\r\n        Item _item;\r\n        string _itemID;\r\n        uint _itemPrice;\r\n        ItemManager.SupplyChaninState _itemState;\r\n    }\r\n\r\n    struct DetailedItemList\r\n    {\r\n      uint itemIndex;\r\n      mapping (uint => ItemModel) itemList;\r\n    }\r\n\r\n    mapping (uint => ItemModel ) public items;\r\n    mapping (address => DetailedItemList) public ownedItems;\r\n    \r\n    event SupplyChaninStep(uint _itemIndex, uint _itemState, address _itemAddress);\r\n    event ItemDetails(string _itemID, uint _itemPrice, Item _item);\r\n    uint public itemIndex;\r\n    event ItemCount(uint _itemCount);\r\n\r\n\r\n    function createItem(string memory _id, uint _itemPrice)\r\n      public\r\n      onlyOwner\r\n    {\r\n        Item item = new Item( this, _itemPrice, itemIndex);\r\n        items[itemIndex]._item = item;\r\n        items[itemIndex]._itemID = _id;\r\n        items[itemIndex]._itemPrice = _itemPrice;\r\n        items[itemIndex]._itemState = SupplyChaninState.Created;\r\n\r\n        emit SupplyChaninStep(itemIndex, uint(items[itemIndex]._itemState), address(item));\r\n\r\n        itemIndex++;\r\n    }\r\n\r\n    function findItemByIndex(uint _itemIndex)\r\n      public\r\n    {\r\n      emit ItemDetails(items[_itemIndex]._itemID, items[_itemIndex]._itemPrice, items[_itemIndex]._item);\r\n    }\r\n\r\n    function getItemCountOfAccount(address _address)\r\n      public\r\n    {\r\n      require(_address == msg.sender, \"You do not have permission\");\r\n      \r\n      emit ItemCount(ownedItems[_address].itemIndex);\r\n    }\r\n\r\n    function findItemByIndexForAccount(address _address, uint _index)\r\n      public\r\n    {\r\n      require(_address == msg.sender, \"You do not have permission\");\r\n\r\n      emit ItemDetails(ownedItems[_address].itemList[_index]._itemID,ownedItems[_address].itemList[_index]._itemPrice,ownedItems[_address].itemList[_index]._item);\r\n    }\r\n\r\n    function triggerPayment(uint _itemIndex)\r\n      public\r\n      payable\r\n    {\r\n        require(items[_itemIndex]._itemPrice == msg.value , \"Only full payments accepted!\");\r\n        require(items[_itemIndex]._itemState == SupplyChaninState.Created, \"Item Not created or was allready paid!\");\r\n\r\n        items[_itemIndex]._itemState = SupplyChaninState.Paid;\r\n\r\n        DetailedItemList storage newDetails = ownedItems[msg.sender];\r\n        newDetails.itemList[newDetails.itemIndex] = items[_itemIndex];\r\n        newDetails.itemIndex++;\r\n\r\n        emit SupplyChaninStep(_itemIndex, uint(items[_itemIndex]._itemState), address(items[_itemIndex]._item));\r\n\r\n    }\r\n\r\n\r\n    function triggerDelivery(uint _itemIndex)\r\n      public\r\n      onlyOwner\r\n    {\r\n        require(items[_itemIndex]._itemState == SupplyChaninState.Paid, \"Item was not paid!\");\r\n\r\n        items[_itemIndex]._itemState = SupplyChaninState.Delivered;\r\n\r\n        emit SupplyChaninStep(_itemIndex, uint(items[_itemIndex]._itemState), address(items[_itemIndex]._item));\r\n    }\r\n}",
  "sourcePath": "D:\\Solidity\\Dapp Dev\\supply-chain\\contracts\\ItemManager.sol",
  "compiler": {
    "name": "solc",
    "version": "0.8.13+commit.abaa5c0e.Emscripten.clang"
  },
  "schemaVersion": "3.4.6",
  "updatedAt": "2022-03-24T13:14:06.552Z",
  "networkType": "ethereum",
  "devdoc": {
    "kind": "dev",
    "methods": {},
    "version": 1
  },
  "userdoc": {
    "kind": "user",
    "methods": {},
    "version": 1
  }
}