{
  "contractName": "Item",
  "abi": [
    {
      "inputs": [
        {
          "internalType": "contract ItemManager",
          "name": "_parentContract",
          "type": "address"
        },
        {
          "internalType": "uint256",
          "name": "_priceInWei",
          "type": "uint256"
        },
        {
          "internalType": "uint256",
          "name": "_index",
          "type": "uint256"
        }
      ],
      "stateMutability": "nonpayable",
      "type": "constructor"
    },
    {
      "inputs": [],
      "name": "index",
      "outputs": [
        {
          "internalType": "uint256",
          "name": "",
          "type": "uint256"
        }
      ],
      "stateMutability": "view",
      "type": "function"
    },
    {
      "inputs": [],
      "name": "priceInWei",
      "outputs": [
        {
          "internalType": "uint256",
          "name": "",
          "type": "uint256"
        }
      ],
      "stateMutability": "view",
      "type": "function"
    },
    {
      "inputs": [],
      "name": "pricePaid",
      "outputs": [
        {
          "internalType": "uint256",
          "name": "",
          "type": "uint256"
        }
      ],
      "stateMutability": "view",
      "type": "function"
    },
    {
      "stateMutability": "payable",
      "type": "receive"
    }
  ],
  "bytecode": "0x608060405234801561001057600080fd5b506040516106cb3803806106cb83398181016040528101906100329190610134565b816000819055508060028190555082600360006101000a81548173ffffffffffffffffffffffffffffffffffffffff021916908373ffffffffffffffffffffffffffffffffffffffff160217905550505050610187565b600080fd5b600073ffffffffffffffffffffffffffffffffffffffff82169050919050565b60006100b98261008e565b9050919050565b60006100cb826100ae565b9050919050565b6100db816100c0565b81146100e657600080fd5b50565b6000815190506100f8816100d2565b92915050565b6000819050919050565b610111816100fe565b811461011c57600080fd5b50565b60008151905061012e81610108565b92915050565b60008060006060848603121561014d5761014c610089565b5b600061015b868287016100e9565b935050602061016c8682870161011f565b925050604061017d8682870161011f565b9150509250925092565b610535806101966000396000f3fe6080604052600436106100385760003560e01c80632986c0e51461022c5780633c8da5881461025757806389794d001461028257610227565b3661022757600060015414610082576040517f08c379a00000000000000000000000000000000000000000000000000000000081526004016100799061031c565b60405180910390fd5b34600054146100c6576040517f08c379a00000000000000000000000000000000000000000000000000000000081526004016100bd90610388565b60405180910390fd5b6000600360009054906101000a900473ffffffffffffffffffffffffffffffffffffffff1673ffffffffffffffffffffffffffffffffffffffff163460025460405160240161011591906103c1565b6040516020818303038152906040527f800fb83f000000000000000000000000000000000000000000000000000000007bffffffffffffffffffffffffffffffffffffffffffffffffffffffff19166020820180517bffffffffffffffffffffffffffffffffffffffffffffffffffffffff838183161783525050505060405161019f9190610456565b60006040518083038185875af1925050503d80600081146101dc576040519150601f19603f3d011682016040523d82523d6000602084013e6101e1565b606091505b5050905080610225576040517f08c379a000000000000000000000000000000000000000000000000000000000815260040161021c906104df565b60405180910390fd5b005b600080fd5b34801561023857600080fd5b506102416102ad565b60405161024e91906103c1565b60405180910390f35b34801561026357600080fd5b5061026c6102b3565b60405161027991906103c1565b60405180910390f35b34801561028e57600080fd5b506102976102b9565b6040516102a491906103c1565b60405180910390f35b60025481565b60005481565b60015481565b600082825260208201905092915050565b7f4974656d206973207061696420616c7265616479210000000000000000000000600082015250565b60006103066015836102bf565b9150610311826102d0565b602082019050919050565b60006020820190508181036000830152610335816102f9565b9050919050565b7f4f6e6c792066756c6c207061796d656e747320616c6c6f776564000000000000600082015250565b6000610372601a836102bf565b915061037d8261033c565b602082019050919050565b600060208201905081810360008301526103a181610365565b9050919050565b6000819050919050565b6103bb816103a8565b82525050565b60006020820190506103d660008301846103b2565b92915050565b600081519050919050565b600081905092915050565b60005b838110156104105780820151818401526020810190506103f5565b8381111561041f576000848401525b50505050565b6000610430826103dc565b61043a81856103e7565b935061044a8185602086016103f2565b80840191505092915050565b60006104628284610425565b915081905092915050565b7f546865207472616e73616374696f6e207761736e27742073756363657373667560008201527f6c2c2063616e63656c696e672100000000000000000000000000000000000000602082015250565b60006104c9602d836102bf565b91506104d48261046d565b604082019050919050565b600060208201905081810360008301526104f8816104bc565b905091905056fea26469706673582212205a4478545e682352bad753b681714476e543de31c32490d7210538bca186fefd64736f6c634300080d0033",
  "immutableReferences": {},
  "source": "// SPDX-License-Identifier: MIT\r\n\r\npragma solidity ^0.8.0;\r\nimport \"./ItemManager.sol\";\r\n\r\ncontract Item\r\n{\r\n    uint public priceInWei;\r\n    uint public pricePaid;\r\n    uint public index;\r\n\r\n    ItemManager parentContract;\r\n\r\n    constructor(ItemManager _parentContract, uint _priceInWei, uint _index)\r\n    {\r\n        priceInWei = _priceInWei;\r\n        index = _index;\r\n        parentContract = _parentContract;\r\n    }\r\n\r\n    receive()\r\n      external\r\n      payable\r\n    {\r\n        require(pricePaid == 0, \"Item is paid already!\");\r\n        require(priceInWei == msg.value, \"Only full payments allowed\");\r\n\r\n        (bool success, )= address(parentContract).call{value: msg.value}(\r\n            abi.encodeWithSignature(\"triggerPayment(uint256)\", index)\r\n        );\r\n\r\n        require(success, \"The transaction wasn't successful, canceling!\");\r\n    }\r\n\r\n}",
  "sourcePath": "D:\\Solidity\\Dapp Dev\\supply-chain\\contracts\\Item.sol",
  "compiler": {
    "name": "solc",
    "version": "0.8.13+commit.abaa5c0e.Emscripten.clang"
  },
  "schemaVersion": "3.4.6",
  "updatedAt": "2022-03-20T11:24:21.134Z",
  "devdoc": {
    "kind": "dev",
    "methods": {},
    "version": 1
  },
  "userdoc": {
    "kind": "user",
    "methods": {},
    "version": 1
  }
}